:020000040000FA
:1000000040E0001099010000A1010000F30200008F
:10001000A5010000A7010000A901000000000000E8
:1000200000000000000000000000000001010000CE
:10003000AD0100000000000045010000F30D0000CC
:10004000B3010000B3010000B3010000B3010000E0
:10005000B3010000B3010000B3010000F50F000080
:10006000B3010000B3010000B3010000B3010000C0
:10007000B3010000B3010000B3010000B3010000B0
:10008000B3010000B3010000B3010000B3010000A0
:10009000B3010000B3010000B3010000B301000090
:1000A000B3010000B3010000B3010000B301000080
:1000B0001D080000B3010000B3010000B3010000FF
:1000C000B3010000B3010000B3010000B301000060
:1000D000B3010000B3010000B3010000B301000050
:1000E000B3010000DFF80CD000F00AF90048004727
:1000F0001173000040E0001040BA7047C0BA70476A
:10010000224B19680868B0E8F00F80F30988BFF344
:100110006F8F4FF0000080F311884EF00D0E704786
:100120000000000006480068006880F3088862B696
:1001300061B6BFF34F8FBFF36F8F00DF00BF00BF0B
:1001400008ED00E0EFF30980BFF36F8F0F4B1A68E3
:1001500020E9F00F106008B54FF0280080F31188F7
:10016000BFF34F8FBFF36F8F11F01CFA4FF00000F9
:1001700080F31188BDE8084019680868B0E8F00FFE
:1001800080F30988BFF36F8F704700BF44000010F1
:10019000EFF3058070470000064880470648004797
:1001A000FEE7FEE7FEE7FEE7FEE7FEE7FEE7FEE727
:1001B000FEE7FEE7050E0000E50000002DE9F05F18
:1001C0000546002092469B468846064681464024C6
:1001D0001BE0284641464746224600F06EF853464B
:1001E0005A46C01A914110D311461846224600F0D3
:1001F00055F82D1A67EB01084F46224601200021D1
:1002000000F04CF817EB00094E41201EA4F1010448
:10021000DFDC484631462A464346BDE8F09F10B52C
:10022000431A934209D28318881803E010F8011D7D
:1002300003F8011D521EF9D210BD40EA01039B07CD
:1002400003D009E008C9121F08C0042AFAD203E04B
:1002500011F8013B00F8013B521EF9D210BDD2B299
:1002600001E000F8012B491EFBD270470022F6E79F
:1002700010B513460A4604461946FFF7F0FF20461C
:1002800010BD30B504460020034600E05B1C9342DD
:1002900003D2E05CCD5C401BF8D030BD202A04DBEB
:1002A000203A00FA02F1002070479140C2F1200389
:1002B00020FA03F3194390407047202A04DB203AC8
:1002C00021FA02F00021704721FA02F3D040C2F176
:1002D0002002914008431946704700000348016816
:1002E000C80000F100500068704700001841082065
:1002F000704700207047704770477047FFFFFFFF4F
:10030000064C074D06E0E06840F0010394E8070062
:1003100098471034AC42F6D3FFF7E8FE442A0100B8
:10032000642A010070B58C1810F8015B15F0070302
:1003300001D110F8013B2A1106D110F8012B03E07E
:1003400010F8016B01F8016B5B1EF9D12B0705D486
:100350000023521E0DD401F8013BFAE710F8013BCF
:10036000CB1A921C03E013F8015B01F8015B521EEB
:10037000F9D5A142D8D3002070BD0000012907D1D2
:10038000084A12680243074BC43BC3F8C42007E085
:1003900031B9044A12688243024BC43BC3F8C420FB
:1003A00070470000C4C00F40014631B1012907D099
:1003B000022908D003290CD108E0074800687047DB
:1003C00006480068FBE706480068F8E7054800684B
:1003D000F5E700BFFEE70000000000100400001079
:1003E000080000100C000010F8B504460E46164830
:1003F000056809E00020009002E00098401C009091
:10040000124900988842F8D3002000F021F8022811
:10041000F0D0E80000F10050076C4EB1601EC0F350
:100420000A0040F04041E80000F10050416408E05B
:10043000601EC0F30A0040F00041E80000F10050E7
:1004400041643846F8BD00002841082040420F00B2
:1004500010B504464CB9124801681248D0F828215A
:100460000F4808380068431C09E00D48143801683B
:100470000C48D0F814210A481C380068431C9142EB
:1004800001D1002010BD21B9581E904201D1022097
:10049000F8E7501C814201D10220F3E70120F1E787
:1004A0002C4108200040082004480168C80000F1E1
:1004B0000050008CC0F30A00401C7047184108200F
:1004C00003480168C80000F10050006A704700004E
:1004D0001841082003480168880000F10050806D31
:1004E00070470000284108207CB504462C22214694
:1004F0004848FFF794FE01218807FFF73FFF4FF4BC
:100500004F404549086078204449086064200190C4
:1005100002E00198401E019001980028F9D10220C4
:100520003D49086030204860400148610020FFF7E5
:100530003BFF3B49B0FBF1F000900020019009E047
:1005400038480199405C0099884200DB05E0019839
:10055000401C019001980F28F2D300BF01980F288A
:1005600001D300207CBD0198401C0190A0892A493C
:100570004861019800F00F004FF4004141EA80000B
:10058000254908620846006A20F40040086243F2E8
:100590000F7008611220C86040012049086020697E
:1005A00030B1204621698847012801D00020D9E7D1
:1005B000A0680AF037F809F037FF0FF09FFD2620FA
:1005C000194908600121FF2000F036F84FF6FF704E
:1005D0001649086000F09CF800F064F81C20012126
:1005E00081404209920002F1E022C2F8001100BFEE
:1005F0001F21002807DACA06150E0D4A00F00F0366
:100600001B1FD55403E0CA06130E0A4A135400BF39
:100610000120A7E7D0010010004008200041082079
:10062000A02526009425010000420820E84F08205C
:1006300018ED00E000E400E0012905D1054A126848
:100640000243044B1A6004E0024A12688243014BE1
:100650001A607047E44F0820014601F01F000F4B5D
:100660001B7903F01F0340EA03200D4B9862012021
:100670005862002200BF06E00948406B00F001000C
:1006800000B903E0521CB2F5A02FF5D300BF002043
:10069000034B58621846006B80B27047D0010010BF
:1006A000004008200648006840F001000549C1F8F4
:1006B00000010846006840F0010008607047000033
:1006C000004108200040082070B10949496841F004
:1006D0000101074A51600749096841F48061C2F885
:1006E00000111521916002E01221014A91607047CA
:1006F000004008200041082020B14FF48071034AD7
:10070000916102E00021014A916170470040082098
:100710000348006840F002000249C1F80001704738
:10072000004108200040082004490868411C084690
:10073000042900D1002001490860704718410820B1
:1007400006490868411C0846054AD2F82421521C73
:10075000914200D1002001490860704728410820DB
:10076000004008202DE9F0470746D7F804903D687F
:100770001948D0F814A0681C4FF6FE7100EA010574
:10078000B5FBFAF60DB9BDE8F0871FE0002E01DDDC
:10079000504600E02846044604B919E02EB9A0B23C
:1007A0000121FFF721FE804604E0A0B20021FFF7FF
:1007B0001BFE804604E039F8020B28F8020BA41E49
:1007C000002CF8D1761E2D1BFFF7BAFF002EDDDAC4
:1007D00000BF00BFD7E700000040082010B500F0C0
:1007E0001F030C4C247904F01F0443EA04230A4C31
:1007F000A3622346D962002200BF06E0064B5B6B72
:1008000003F0010303B903E0521CB2F5A02FF5D3A6
:1008100000BF10BDD0010010004008202DE9F041BC
:10082000F8E08248056005F0030000283DD0FFF79E
:1008300047FE0646002406F4000008B1102000E040
:100840000020044306F0807008B1082000E000207A
:10085000044306F0007008B1042000E000200443C7
:10086000C6F3C060044306F0805008B1402000E0A9
:100870000020044306F0005008B1202000E00020D2
:10088000044306F4801010B14FF4805000E00020C3
:10089000044314B925F0020506E06548006A18B162
:1008A0006348016A2046884700BF05F0300090B3D6
:1008B000FFF710FE0646002406F0806010B14FF4EA
:1008C000007000E00020044306F0006010B14FF417
:1008D000807000E00020044306F0805008B18020C2
:1008E00000E00020044306F0005010B14FF4806097
:1008F00000E00020044306F0804010B14FF4006097
:1009000000E0002004434A48006A18B14848016AE0
:100910002046884700BF05F0080000285FD001206E
:10092000FFF796FD00285AD0FFF7BEFD0746002FBF
:1009300055DDFF1EFFF7C4FD3E49084000284ED19B
:100940003D48007800EB40003C4901EB80203C49E9
:10095000096800EB4104FFF7C1FC0646384800680F
:1009600038443749086008460068B0F5C06F09D3BD
:10097000002008602E48006A80B32D48016A0420D8
:1009800088472BE004E036F8020B24F8020BBF1E68
:10099000002FF8DCFFF794FD00F08040E0B1244820
:1009A000806958B12449097801EB4101234B03EBDD
:1009B00081201F498A6922490968904700202049FF
:1009C00008601D480078401C1B49087008460078E4
:1009D000022801DB00200870FFF7A6FE00BF05F02B
:1009E000400028B11248C06910B11149C869804758
:1009F00005F4805028B10E48806A10B10C49886A0D
:100A0000804705F4005028B10948406A10B10849F0
:100A1000486A80470548083800680449091F096882
:100A20000840051E7FF4FDAEBDE8F081E84F0820C8
:100A3000D00100100000901B14000010FC010010F9
:100A40001000001038B504460D46002000901248F2
:100A50001249097840F821401149104A127821F8CA
:100A600012500E480078401C0C4908700846007867
:100A7000022801DB0020087069460A48006811F06E
:100A80007BF8009838B14FF0805007490860BFF3F9
:100A90004F8FBFF36F8F38BD340000103C00001043
:100AA00030000010B801001004ED00E070B50646FB
:100AB0000C46304600F004F8054605B1EC6170BD07
:100AC00001460020052912D2DFE801F00305080BDA
:100AD0000E0008480CE00748203009E00548403087
:100AE00006E00448603003E00248803000E000BFC8
:100AF00000BF70470080092070B505460E461446B9
:100B000024B931462846FFF7D1FF03E03146284695
:100B100000F015F870BD2DE9F04107460D46164668
:100B20003846FFF7CDFF04463CB11EB1206828438C
:100B3000206002E02068A8432060BDE8F08170B525
:100B400006460C463046FFF7BBFF054605B1AC61D3
:100B500070BD000000B58FB02FA103C9CDE9010120
:100B600001220021104600F01BF901221146104617
:100B700000F016F901220421104600F011F90122BB
:100B80000821104600F00CF901220921104600F05E
:100B900007F901220A21104600F002F901220E2174
:100BA000104600F0FDF801220F21104600F0F8F881
:100BB00001221021104600F0F3F801221121104605
:100BC00000F0EEF80020039001A8059001208DF8B8
:100BD00010004FF4C060ADF818001148079011489C
:100BE00008901148099011480B9000200A900D9030
:100BF0000C9009E04FF480100E9002E00E98401E19
:100C00000E900E980028F9D103A8FFF76DFC00287C
:100C1000F0D00FB000BD0000D87AA50000010000A0
:100C2000310C0000530C0000450A0000F1020000E6
:100C300010B5044600F00DF8002801DA002010BDC0
:100C4000206800F020F8002801DA0020F7E70120F2
:100C5000F5E770B54FF400410020FFF7BFFD4FF4FA
:100C600080140BE00020FFF7F7FC054605F4084070
:100C700000B905E00CB9002070BD641E002CF1DA4B
:100C800000BF0120F8E72DE9F04104460220FFF7FC
:100C9000E3FC06460320FFF7DFFC0746072E34D1AE
:100CA00040F60F40B0EB271F2FD1052C28D2DFE8EC
:100CB00004F0030F151B21004FF440510020FFF7F3
:100CC0008DFD4FF4801500E06D1E002DFCDA1BE059
:100CD0004DF6FF710020FFF781FD15E04FF6FF7123
:100CE0000020FFF77BFD0FE04FF404510020FFF7D9
:100CF00075FD09E04FF6FF610020FFF76FFD03E08F
:100D00004FF0FF30BDE8F08102E04FF0FF30F9E72F
:100D100000F007F8002802DA4FF0FF30F2E7002079
:100D2000F0E770B54FF480150CE00120FFF794FC5C
:100D3000044604F0040000B106E015B94FF0FF309E
:100D400070BD6D1E002DF0DA00BF04F4804010B9B4
:100D500004F4805018B10120FFF7B6FC08E004F459
:100D6000005010B904F4006010B10020FFF7ACFC93
:100D700004F4004028B904F4804010B904F4005091
:100D800018B10120FFF7B8FC08E004F4805010B956
:100D900004F4006010B10020FFF7AEFC0020CFE7A4
:100DA0002DE9F04106460F461546002439463046E7
:100DB00000F00AF80446207800F007002060206860
:100DC00028432060BDE8F08110B50246002001EB09
:100DD0004213024C04EB830010BD000000C002402F
:100DE0007CB505460C46019500946846FFF7BAFCB1
:100DF0007CBD10B511F05CF9012801D010F0C4FCE5
:100E000010BD000021202E49086000BF2C4800685A
:100E100000F040000028F9D00120294994390860E9
:100E200009202849C1F88400012026498031086042
:100E3000AA2024498C3108605520086000BF214851
:100E40008830006800F480600028F8D023201D4915
:100E5000A431086001201B49C1F8A000AA2019494B
:100E6000AC31086055201749C1F8AC0000BF1548E7
:100E7000A830006800F480600028F8D040F201102B
:100E80000F499C39086040F201200E49C1F8080161
:100E900001200B49A0390860022009490831086087
:100EA00009480849C4310860881505492831086097
:100EB00045F23A0003490860002004490860704781
:100EC000A0C10F4000C00F40DE87280408ED00E0FD
:100ED0003EB5002108460EF073FF00202649086049
:100EE0002649086026490860264827490022244BE5
:100EF000CDE900210290214A1F49244807F024FC33
:100F0000224807F0E7FD214890F82D00C0F380004B
:100F100018B11E4807F016FE02E01C4807F0E0FD7D
:100F20001B4800F0FBFA194801F0CAFF04461CB93F
:100F300018A000F0F3FA02E01DA000F0EFFA02E0C2
:100F4000012010F05BF9114840680B49096888429C
:100F5000F6D00E484068000E00900C484068C0F380
:100F600007430A488088C0F307220848017917A080
:100F700000F0D4FA3EBD0000A0010010A401001052
:100F8000A8010010E5FE00004540000074C80010F4
:100F9000F42901006C776970206468637020696EC1
:100FA000697420737563636573732E2E2E0A0A00AD
:100FB0006C776970206468637020696E697420665C
:100FC00061696C2E2E2E0A0A00000000B1BEB5D851
:100FD0004950B5D8D6B7CAC73A25642E25642E2500
:100FE000642E25640A0A000001480078704700005A
:100FF0000080094000B50D4880680D49088008460A
:10100000007800F00F0008800846008804280CD102
:101010000648007D00F0010038B1FFF7E5FF054903
:1010200008700846007800F007F800BD008009400D
:10103000280000102A000010014600BF0448007D6F
:1010400000F020000028F9D0C8B2014A10707047A3
:10105000008009400146002205291DD2DFE801F089
:1010600003080D1217001048007D00F0400213E045
:101070000E48007D00F040020EE00D48007D00F0BB
:10108000400209E00B48007D00F0400204E00A48FD
:10109000406900F0400200BF00BF02F0400008B10C
:1010A000002070470120FCE700C000400000014024
:1010B0000080094000C0094000400A404FF4E1317F
:1010C00001600321417100210171817170470000AD
:1010D0002DE9F04106460F46052E3ED2DFE806F028
:1010E000033E0405720000BF00BF30460FF036F823
:1010F000054626B901210820FFF740F90CE0022E31
:1011000004D101210806FFF739F905E0032E03D1C8
:1011100001214806FFF732F90720287200202872C3
:1011200000E02C78287D00F001000028F9D1802013
:1011300085F8300000BF287D00F020000028FAD09C
:10114000002085F8300068602873286285F84C001C
:1011500085F8540085F850002C7D59E001211020BD
:10116000FFF70CF907205F4908720020087201E0C0
:101170005C4804785B48007D00F001000028F7D14E
:10118000802058493031087000BF5648007D00F07B
:1011900020000028F9D00020524930310870514910
:1011A00048600873086281F84C004E495431087059
:1011B0004C4981F850000846047D00200874084618
:1011C000047E25E001210802FFF7D8F807204649F0
:1011D00088600020886001E0434804684248406914
:1011E00000F001000028F7D100BF3F48406900F03F
:1011F00020000028F9D000203B494860C860086200
:10120000C86448650865084644690020486200BF14
:1012100000BF304639680EF0B9FF012E04D13148C5
:10122000007B00F0C0040EE0042E04D12E48C068FC
:1012300000F0C00407E030460EF090FF0546287B22
:1012400000F0C00400BF787930B1012806D0022830
:1012500007D0032808D108E000BF09E044F00104EA
:1012600006E044F0020403E000BF44F0030400BFC2
:1012700000BF3879C0B144F008043879012806D09D
:10128000022806D0032807D004280BD107E000BFAE
:1012900009E044F0100406E044F0200403E044F0C8
:1012A000300400E000BF00BFB87928B1012802D1A6
:1012B00044F0040401E000BF00BF00BF012E02D1D2
:1012C00008490C730BE0042E03D1E0B20649C86054
:1012D00005E030460EF042FF05462C7300BFBDE826
:1012E000F08100000000014000400A40F0B50446D3
:1012F0000B4600210025052C18D2DFE804F0030777
:101300000B0F13001D4940F207350FE01C4940F256
:101310008F350BE01B4940F2073507E01A4940F2D0
:10132000073503E0194940F2073500BF00BF072B1E
:1013300015D2DFE803F00406080A0C0E11000120A4
:101340000DE002200BE0042009E0082007E08020E7
:1013500005E04FF4807002E04FF4007000BF00BF62
:10136000012A05D10E6800EA05073E430E6004E03D
:101370000E6825EA00073E400E60F0BD04C0004044
:10138000040001400480094004C0094004400A40B0
:10139000052814D2DFE800F00306090C0F00094B02
:1013A00019700CE0084B197009E0084B197006E041
:1013B000074B197003E0CAB2064B1A6000BF00BFAA
:1013C0007047000000C0004000000140008009405C
:1013D00000C0094000400A4070B504460D46012D8A
:1013E00017D1012C08D11648007840F0800014492C
:1013F000303981F8300022E0042C20D020460EF055
:10140000ADFE064696F8300040F0800086F83000C9
:1014100015E0012C07D10A4800780020084930392E
:1014200081F830000BE0042C09D020460EF096FE27
:10143000064696F83000002086F8300000BF70BDE8
:10144000300001401CB501220A210020FFF7A8FC52
:1014500001220B210020FFF7A3FC4FF4E1300090A4
:1014600003208DF8050000208DF804008DF806009B
:101470006846FFF723FE69460220FFF729FE022295
:1014800011460020FFF78CFC022203210020FFF709
:1014900087FC4FF4E130009003208DF80500002018
:1014A0008DF804008DF806006846FFF707FE6946D0
:1014B0000320FFF70DFE01210220FFF78DFF012120
:1014C0000320FFF789FF012200210220FFF70EFF12
:1014D000012202210846FFF709FF07201F210028EB
:1014E00007DACA06140E0B4A00F00F031B1FD45470
:1014F00003E0CA06130E084A135400BF0720012157
:1015000081404209920002F1E022C2F8001100BFBE
:101510001CBD000018ED00E000E400E00FB4054B36
:1015200010B503A9044A029800F016F810BC5DF843
:1015300014FB000035420000CC01001002E008C896
:10154000121F08C1002AFAD17047002001E001C132
:10155000121F002AFBD170472DE9FF4F8DB09B462B
:101560000F460446002606E025280BD05A460F9960
:101570009047641C761C20780028F5D111B03046C5
:10158000BDE8F08F0025A8460122984900E00543F8
:1015900014F8013F203B02FA03F00842F7D120780B
:1015A0002E2817D114F8010F45F004052A280ED073
:1015B0006FF02F022078A0F1300109290AD808EB3A
:1015C000880102EB410100EB0108641CF2E757F8C7
:1015D000048B641C20786C280DD004DC4C2812D0BD
:1015E0006A2811D104E074280DD07A280CD10AE0C1
:1015F00045F4001507E0617845F48015814202D179
:10160000641C05F58015641C2278692A45D008DC25
:10161000002AB3D0582A69D0632A10D0642A08D18E
:101620003BE0702A67D0732A13D0752A5CD0782AE1
:101630005CD010465A460F999047761CD3E017F8B5
:10164000040B8DF8000000208DF80100E946012010
:1016500003E057F8049B4FF0FF3069074FF0000597
:1016600001D40AE06D1C45450DDA8542FADB19F814
:1016700005100029F6D106E06D1C8542FCDB19F847
:1016800005100029F8D12E4404E019F8010B5A4640
:101690000F9990476D1EF8D2A5E00A200021CDE9F0
:1016A0000801C5F3025002280DD001CFC117031E57
:1016B00071F100030DDA4FF0000CD0EB0C006CEB75
:1016C00001012D2308E0FF1D27F00707F7E80201BD
:1016D000EDE72B0504D52B238DF8283001233BE0C3
:1016E000EB0739D02023F7E70A2000E01020002183
:1016F000CDE9080107E01020002145F00405CDE9FF
:1017000008014FF00808C5F3025002280FD001CF9E
:1017100000214FF0000A2B071FD5702A0DD0DDE9FC
:1017200008C38CF0100C5CEA030C0CD015E0FF1D14
:1017300027F00707F7E80201EBE740228DF82820A1
:101740004FF0010A0BE050EA010306D030238DF878
:1017500028308DF8292002239A46582A04D024A242
:101760000DF120090B9209E026A2F9E7DDE9082333
:10177000FEF724FD0B9B9B5C09F8013D50EA01023A
:10178000F4D1ADEB090020300890680701D44FF088
:1017900001080899884502DDA8EB010000E000205F
:1017A0008046002506E00AA85A46405D0F999047FA
:1017B0006D1C761C5545F6DB04E030205A460F9927
:1017C0009047761CB8F10001A8F10108F5DC05E0AE
:1017D00019F8010B5A460F999047761C0899481E34
:1017E00008900029F4DC641CC5E60000092801000B
:1017F0003031323334353637383961626364656687
:101800000000000030313233343536373839414248
:1018100043444546000000002DE9F04105460E46D0
:10182000002440E009F04BF80746214800EB041083
:101830000068002833D11E4800EB041005603846CC
:1018400009F064F800201A4901EB0411486000BF58
:10185000174800EB0410807B20B100BF15A0FFF7F4
:101860005DFE00BF00BF0020114901EB041108819B
:10187000287800F0F000102804D10EB1012002E019
:10188000002000E001200A4901EB041148810020FA
:10189000074901EB041188812046BDE8F0813846F4
:1018A00009F034F8641C042CBCDB4FF0FF30F4E783
:1018B000645F0010736F636B6574735B695D2E7397
:1018C000656C6563745F77616974696E67203D3D1F
:1018D0002030000088B04FF0FF354FF4806008F0F2
:1018E00099FB304908604EF6602064210123A8224C
:1018F000CDE90010C0212CA0FFF710FE3448FFF7FF
:101900000DFE3448FFF70AFE3348039049E00022F9
:101910000121022005F06EFC0546002D06DA2FA0FD
:10192000FFF7FCFD0A200FF069FC3AE002208DF879
:1019300011004EF6602004F00CF9ADF81200039887
:101940000590002006900790102204A9284604F074
:1019500057F8401C48B925A0FFF7E0FD284604F0E1
:1019600001F80A200FF04AFC1BE025A0FFF7D6FD86
:1019700011E000234FF480620A480168284605F010
:1019800089F80446002C00DC06E022460548016880
:10199000284605F0B2FCECE700BF284603F0E2FF62
:1019A00000BFB4E740000010C4BFB5D84950B5D857
:1019B000D6B73A25642E25642E25642E2564200989
:1019C00020B6CBBFDABAC53A25640A0A0000000087
:1019D000F8270100A0270100C0A80164536F636BC2
:1019E0006574206572726F720A000000436F6E6E3C
:1019F000656374206661696C6564210A00000000FB
:101A0000436F6E6E65637420746F207365727665C4
:101A100072207375636365737366756C210A0000C9
:101A200008B50420830100220249009002A009F0B9
:101A30007FF808BDD5180000636C69656E740000FE
:101A400070B505460E4600BF2DB900BF09A0FFF7CF
:101A500065FD00BF70BD00BF2C6A4CB160790828DD
:101A600006D13068E169884202D1284600F008FAC0
:101A700000BFEFE76E6574696620213D204E554C2E
:101A80004C0000007CB5064600BF2EB900BF42A046
:101A9000FFF744FD00BF7CBD00BF346A00BF2CB916
:101AA00000BF44A0FFF73AFD00BFF4E700BF0020ED
:101AB0006082A06A401C70B1A06A1E303C21B0FB5D
:101AC000F1F5B5F5803F01D34FF6FF75A582A08AE9
:101AD00008B90120A082E06A401C80B1E06A1E3093
:101AE0003C21B0FBF1F5B5F5803F01D34FF6FF7512
:101AF0006581608908B9012060816089E081206B7F
:101B0000401C80B1206B1E303C21B0FBF1F5B5F5D7
:101B1000803F01D34FF6FF75A581A08908B9012048
:101B2000A081A08920826089A189884204DBA089E4
:101B3000002801DD00206081E07910B1206A019069
:101B40000FE0207F7F2802DCFF21019108E0C02800
:101B500003DB6FF07F41019102E04FF6FF710191CD
:101B600000BF606A0090009848B900BFE069019921
:101B70000840009000BF009840F0807000900A215B
:101B8000204601F095F96B4601AA04F11C0130468C
:101B900006F070FF00BF7EE7646863705F62696E85
:101BA000643A206E6574696620213D204E554C4C88
:101BB00000000000646863705F62696E643A2064CC
:101BC00068637020213D204E554C4C002DE9F041BA
:101BD00005462C6A0821204601F06AF9002204F12A
:101BE0001C01284601F0DAFE0746A079FF2802DA38
:101BF000A079401CA0714FF4FA7606F2F31031463A
:101C000090FBF1F02081BDE8F081000070B518482C
:101C1000056829E02C6A34B3607920B3A08A68B1E2
:101C2000608A401C80B26082A18A884206D1284620
:101C300000F084FF284601F043F914E0208A40B107
:101C4000218A481E2082012903D1284601F0DFF9AC
:101C500009E0E08938B1E189481EE081012902D11B
:101C6000284601F0B3F92D68002DD3D170BD0000D6
:101C7000080100102DE9F05F07460D4616469A460A
:101C800000BF3FB900BF43A0FFF748FC00BF0020E2
:101C9000BDE8F09F00BF00BF35B900BF45A0FFF70A
:101CA0003DFC00BF0020F3E700BF4FF420724FF46B
:101CB0009A71362006F0C0FF8146B9F1000F01D1BC
:101CC0000020E5E700BFB9F80A00B0F59A7F04D21A
:101CD00000BF40A0FFF722FC00BF00BF032E02D1CF
:101CE0006879032809D1A87920B94A480068401CBE
:101CF00048490860474800682860D9F804404FF414
:101D00009A712046FEF7B2FA01202070607097F8B1
:101D10002C00A070286803F00FFF6060082E0BD025
:101D2000042E09D0072E07D0032E07D16879052885
:101D300002D06879042801D17868E0604FF000088B
:101D40000BE007F1260010F8081004F11C0000F861
:101D5000081008F101001FFA80F8B8F1060FF0D35F
:101D60002D48C4F8EC000123352204F1F0010020D5
:101D700000F03CFA8346324604F1F001584600F088
:101D800053FA8346BAF1000F01D0AAF800B04846D2
:101D90007EE70000646863705F6372656174655F0D
:101DA0006D73673A206E6574696620213D204E553B
:101DB0004C4C0000646863705F6372656174655FBA
:101DC0006D73673A206468637020213D204E554C46
:101DD0004C000000646863705F6372656174655FE6
:101DE0006D73673A20636865636B20746861742063
:101DF000666972737420706275662063616E206814
:101E00006F6C642073747275637420646863705FB0
:101E10006D736700840100106382536310B500BFC7
:101E20000C480078002804DC00BF0BA0FFF776FB0D
:101E300000BF00BF07480078401E064908700846EA
:101E4000007830B90D4800680EF064FD00200B49A1
:101E5000086010BD80010010646863705F70636289
:101E60005F726566636F756E7428293A20726566C5
:101E7000636F756E74206572726F72007C01001062
:101E80002DE9FE4F0646346A0C21204601F010F879
:101E900002AB042221463046FFF7ECFE054665B34F
:101EA000D5F804800423322208F1F001BDF80800BF
:101EB00000F09CF90290E06903F03EFE8246524633
:101EC00008F1F001BDF8080000F0DEF902902A46A2
:101ED00008F1F001BDF8080000F052FA1148432360
:101EE000114A2946CDE90060104800680EF078FEDE
:101EF0000746284607F0EEF901E04FF0FF37A079DA
:101F0000FF2802DAA079401CA07142F2107909F290
:101F1000F3104FF4FA7190FBF1F020813846BDE8E0
:101F2000FE8F0000382701003C2701007C010010D3
:101F30002DE9FE4F07463C6A4FF0000A0020E061A1
:101F40000621204600F0B4FF02AB012221463846AC
:101F5000FFF790FE0546002D42D06E68022339221D
:101F600006F1F001BDF8080000F040F90290BA8CCB
:101F700006F1F001BDF8080000F0CAF90290032351
:101F8000372206F1F001BDF8080000F02FF90290A9
:101F9000D0460DE0224810F8082006F1F001BDF807
:101FA000080000F041F9029008F1010000F0FF087C
:101FB000B8F1030FEED32A4606F1F001BDF8080090
:101FC00000F0DEF917484323174A2946CDE900708F
:101FD000164800680EF004FE284607F07BF900BFA3
:101FE000A079FF2802DAA079401CA071A079062808
:101FF00003DAA1790120884000E03C2000EB400199
:10200000C1EBC0104FF6FF7101EAC00909F2F310ED
:102010004FF4FA7190FBF1F020815046BDE8FE8F3D
:1020200078010010382701003C2701007C010010D6
:1020300070B50C48056812E02C6A7CB12089012833
:1020400003DD2089401E208108E02089012805D178
:102050002089401E2081284600F0FDFF2D68002DBC
:10206000EAD170BD0801001070B505460E462C6A15
:102070000020206260621A48C07810B11948C06818
:10208000A0621748007918B116480069E06202E0C2
:10209000A06A4008E0621248407918B111484069CE
:1020A000206304E0A06AC0EBC000C0082063306970
:1020B000E0610B48807938B10A49886903F03CFD3A
:1020C00020620120E07101E00020E0710448C07945
:1020D00020B10449C86903F02FFD606270BD0000A3
:1020E0007001001044C7001070B50446256A0C2129
:1020F000284600F0DDFE054B1A461146204606F044
:10210000B9FC2046FFF714FF70BD0000382701001E
:1021100070B505460E462C6A0748807858B10020F5
:1021200020810649886803F007FDA0613069E061FD
:10213000284600F0DFFD70BD7001001044C700109C
:1021400010B51C48007800282DD100BF1A4800683F
:1021500020B100BF19A0FFF7E1F900BF00BF0EF0EA
:1021600079FB154908600846006810B94FF0FF3048
:1021700010BD11480068407A40F020000E490968FF
:102180004872442217490C4800680EF0F3F84322C5
:102190001449094800680EF04FF900221249064818
:1021A00000680EF099FB03480078401C0149087054
:1021B0000020DDE7800100107C010010646863707E
:1021C0005F696E635F7063625F726566636F756E91
:1021D0007428293A206D656D6F7279206C65616B8A
:1021E0000000000038270100152A00002DE9F04109
:1021F00004460D4617461E4600BFA01C3044442826
:1022000004D900BF0748FFF789F900BF00BF204687
:10221000611C8CB22F542046611C8CB22E54204677
:10222000BDE8F0816C29010070B504460D461646E4
:1022300000BF442C04D300BF05A0FFF76FF900BF17
:1022400000BF2046611C8CB22E54204670BD000099
:10225000646863705F6F7074696F6E5F62797465D4
:102260003A206F7074696F6E735F6F75745F6C6521
:102270006E203C20444843505F4F5054494F4E53CA
:102280005F4C454E0000000070B504460D461646F2
:1022900000BF201D442804D900BF0EA0FFF73EF95F
:1022A00000BF00BF320E2046611C8CB22A54C6F318
:1022B00007422046611C8CB22A54C6F307222046EE
:1022C000611C8CB22A542046611C8CB22E542046CC
:1022D00070BD0000646863705F6F7074696F6E5FDB
:1022E0006C6F6E673A206F7074696F6E735F6F7595
:1022F000745F6C656E202B2034203C3D20444843A5
:10230000505F4F5054494F4E535F4C454E000000B4
:1023100070B504460D46164600BFA01C442804D9DB
:1023200000BF08A0FFF7FAF800BF00BF320A20463E
:10233000611C8CB22A542046611C8CB22E5420465B
:1023400070BD0000646863705F6F7074696F6E5F6A
:1023500073686F72743A206F7074696F6E735F6F19
:1023600075745F6C656E202B2032203C3D20444804
:1023700043505F4F5054494F4E535F4C454E000001
:1023800070B504460D461646FF222046611C8CB2ED
:102390002A5404E000222046611C8CB22A54442CAA
:1023A00002D304F0030008B1442CF3D304F1F0008D
:1023B00081B2304607F06CF870BD00002DE9F04F97
:1023C0008BB08146002007900690E848002101600C
:1023D0004160B9F80A002C2803D2881E0BB0BDE872
:1023E000F08FD9F8040005904FF0F00AB9F8080012
:1023F000089000BF4C460AE06089AAEB00001FFA73
:1024000080FA61890898401A80B20890246814B153
:1024100060895045F0DD14B96FF00100DEE75546E4
:102420000898099060680A906BE10A98405D0490F2
:1024300000274FF0FF38A81C1FFA80FBAB4501DADC
:10244000B81ECBE76189681C814203DD691C0A98CC
:10245000465C07E0206818B120684068007800E01A
:102460000020064637460498342843D007DC78B16C
:10247000012811D003281ED0332871D12BE0352834
:1024800054D0362861D03A2870D03B28F5D17CE072
:102490000020064607468BE000BF042E07D000BF91
:1024A000B3A0FFF73BF800BF6FF0050096E700BF51
:1024B0004FF006087CE0042700BFBE4207DA00BFE9
:1024C000AEA0FFF72BF800BF6FF0050086E700BF56
:1024D0004FF007086CE000BF042E07D000BFA4A097
:1024E000FFF71CF800BF6FF0050077E700BF4FF063
:1024F00003085DE000BF012E07D000BFA4A0FFF7D6
:102500000DF800BF6FF0050068E700BF00BFBAF12B
:10251000F00F07D000BFA1A0FFF700F800BF6FF0D9
:1025200005005BE700BF4FF0000841E000BF012E4F
:1025300007D000BF96A0FEF7F1FF00BF6FF00500C7
:102540004CE700BF4FF0010832E000BF042E09D075
:1025500000BF87A0FEF7E2FF00BF6FF005003DE778
:1025600022E003E000BF4FF0020821E000BF042E8C
:1025700007D000BF7EA0FEF7D1FF00BF6FF00500BF
:102580002CE700BF4FF0040812E000BF042E07D074
:1025900000BF77A0FEF7C2FF00BF6FF005001DE788
:1025A00000BF4FF0050803E0002700BF00BF00BFD9
:1025B00000BF049810B9681C85B281E0A819801C7E
:1025C000B0F5803F02DB6FF0010007E7A819801C1F
:1025D00085B2002F74DD0020039000BF00BFB8F16A
:1025E000000F02DBB8F1080F04DB00BF71A0FEF79B
:1025F00095FF00BF00BF5D4810F8080000285ED1BD
:10260000042F01DA384600E0042002905B4603A95B
:102610002046029A06F0F2FD01460298814202D05D
:102620006FF00100DAE6042F2BDD00BFF91707EB8E
:1026300091718910A7EB810139B100BF62A0FEF74B
:102640006DFF00BF6FF00500C8E600BF01204749DD
:1026500001F80800039803F06FFA614941F8280077
:10266000381FC7B20BF1040080B2019001985845A1
:1026700002DA6FF00100B1E6DDF804B008F10108FC
:10268000ACE7042F04D1039803F056FA03900EE050
:1026900000BF012F07D000BF52A0FEF73FFF00BFD1
:1026A0006FF005009AE600BF9DF80C000390012032
:1026B0002E4901F808004A49039841F8280000BF54
:1026C0006089A8421CDC6089281A85B26189099852
:1026D000401A80B20990099885420EDA246800BF3A
:1026E0003CB900BF44A0FEF719FF00BF6FF0050022
:1026F00074E600BF60680A9002E06FF001006DE6CA
:1027000000BF3CB10998854204DA0A98405DFF2871
:102710007FF48BAE15480078A0B1314908680021DC
:10272000124A1170012802D10121079109E0022803
:1027300002D10121069104E0032802D10121069172
:10274000079100BF079830B1002007904FF06C0A46
:10275000EC2008904EE6069830B1002006904FF02D
:102760002C0A6C20089045E6002037E67001001026
:102770006C656E203D3D2034000000006C656E20CD
:102780003E3D206465636F64655F6C656E000000AC
:102790006C656E203D3D2031000000006F76657253
:1027A0006C6F616420696E2066696C652F736E6161
:1027B0006D650000636865636B206465636F6465C5
:1027C0005F696478000000006465636F64655F6C36
:1027D000656E2025252034203D3D2030000000007E
:1027E00044C70010696E76616C6964206465636F2C
:1027F00064655F6C656E00006E657874207062754C
:102800006620776173206E756C6C00002DE9FC47C3
:1028100007463C6A0421204600F04AFB01AB032234
:1028200021463846FFF726FA0546002D42D06E684D
:102830000223392206F1F001BDF80400FFF7D6FCAF
:102840000190BA8C06F1F001BDF80400FFF760FDBD
:1028500001900323372206F1F001BDF80400FFF7D1
:10286000C5FC01904FF000080DE0214810F8082049
:1028700006F1F001BDF80400FFF7D6FC019008F165
:10288000010000F0FF08B8F1030FEED32A4606F16D
:10289000F001BDF80400FFF773FD4323154A2946F4
:1028A0001548009700680EF00DF98146284606F09D
:1028B00011FD01E04FF0FF39A079FF2802DAA0797D
:1028C000401CA071A0790A2804DAA0794FF47A712B
:1028D000484301E042F210701FFA80FA0AF2F31046
:1028E0004FF4FA7190FBF1F020814846BDE8FC8777
:1028F000780100103C2701007C0100102DE9FC5FED
:102900008046D8F820400321204600F0D1FA01ABE0
:10291000032221464046FFF7ADF90646002E54D06B
:1029200075680223392205F1F001BDF80400FFF7B4
:102930005DFC01904FF4107205F1F001BDF8040048
:10294000FFF7E6FC01900423322205F1F001BDF807
:102950000400FFF74BFC0190E06903F0EDF88346BB
:102960005A4605F1F001BDF80400FFF78DFC019017
:102970000323372205F1F001BDF80400FFF736FC10
:10298000019000270AE02048C25D05F1F001BDF882
:102990000400FFF749FC0190781CC7B2032FF2D363
:1029A000324605F1F001BDF80400FFF7E9FC4323CE
:1029B000164A31461648CDF8008000680EF082F8BD
:1029C0008146304606F086FC01E04FF0FF39A079E1
:1029D000FF2802DAA079401CA071A0790A2804DA45
:1029E000A0794FF47A71484301E042F210701FFA67
:1029F00080FA0AF2F3104FF4FA7190FBF1F02081A3
:102A00004846BDE8FC9F0000780100103C2701000B
:102A10007C0100102DE9F05F1646DDF828B044482F
:102A200047683C6AD6F804900CB1207900B97AE086
:102A300000BF00BF70892C2800DA74E099F800000C
:102A4000022800D06FE000250AE007F12600415D72
:102A500009F11C00405D814200D064E0681CC5B2F1
:102A600097F82C00A84201DD062DEED3D9F804001A
:102A700003F062F82168884200D054E021463046D5
:102A8000FFF79CFC00B14EE02A48407800B94AE0CC
:102A9000D6F804A0284890F80480B8F1050F24D196
:102AA0006079012810D151463846FFF7DDFA97F8D2
:102AB0002D0000F0080018B13846FFF787F831E024
:102AC0003846FEF7DFFF2DE06079032805D06079F6
:102AD000042802D06079052824D151463846FFF7F2
:102AE000C3FA3846FEF7CEFF1CE0B8F1060F0FD14F
:102AF0006079032808D06079012805D0607904281E
:102B000002D06079052803D13846FFF7EDFA09E0D5
:102B1000B8F1020F06D16079062803D15146384634
:102B2000FFF7F6FA00BF304606F0D4FBBDE8F09F91
:102B3000A45F00107001001044C700102DE9FE438F
:102B40000646346A0CB9BDE8FE83607900B9FAE73D
:102B5000A06902900020A061E061206260622063B1
:102B6000E062A062A08260822082E081304600F0B4
:102B700019FA88B301AB072221463046FFF77AF8ED
:102B8000054645B36F680423362207F1F001BDF80E
:102B90000400FFF72BFB0190029802F0CDFF804666
:102BA000424607F1F001BDF80400FFF76DFB01900C
:102BB0002A4607F1F001BDF80400FFF7E1FB4323CB
:102BC00002AA29460D48009600680DF07BFF2846B2
:102BD00006F080FB00BF00BF094B1A461146304685
:102BE00005F048FF0021204600F062F9207918B175
:102BF000FFF714F90020207100BFA4E77C0100104A
:102C0000382701002DE9FC4707463C6A052120468C
:102C100000F04EF901AB032221463846FFF72AF8AF
:102C20000546002D43D06E680223392206F1F001DB
:102C3000BDF80400FFF7DAFA0190BA8C06F1F00152
:102C4000BDF80400FFF764FB01900323372206F16F
:102C5000F001BDF80400FFF7C9FA01904FF0000839
:102C60000DE0224810F8082006F1F001BDF804003C
:102C7000FFF7DAFA019008F1010000F0FF08B8F15F
:102C8000030FEED32A4606F1F001BDF80400FFF76A
:102C900077FB432304F11802294615480097006882
:102CA0000DF010FF8146284606F014FB01E04FF0BE
:102CB000FF39A079FF2802DAA079401CA071A07921
:102CC0000A2804DAA0794FF4FA61484301E044F697
:102CD00020601FFA80FA0AF2F3104FF4FA7190FBA9
:102CE000F1F020814846BDE8FC8700007801001023
:102CF0007C0100102DE9FE4F074600BF47B900BF19
:102D000059A0FEF70BFC00BF6FF00F00BDE8FE8F6F
:102D100000BF3C6A00BF3CB900BF5AA0FEF7FEFBF3
:102D200000BF6FF00500F1E700BF0121204600F071
:102D3000BFF802AB032221463846FEF79BFF06464A
:102D4000002E6FD075680223392205F1F001BDF81D
:102D50000800FFF74BFA0290BA8C05F1F001BDF8BC
:102D60000800FFF7D5FA02900423322205F1F001A2
:102D7000BDF80800FFF73AFA0290E06902F0DCFEC5
:102D800083465A4605F1F001BDF80800FFF77CFACA
:102D900002900423362205F1F001BDF80800FFF788
:102DA00025FA0290A06902F0C7FE83465A4605F153
:102DB000F001BDF80800FFF767FA029003233722FD
:102DC00005F1F001BDF80800FFF710FA02904FF08E
:102DD00000080DE0324810F8082005F1F001BDF8B8
:102DE0000800FFF721FA029008F1010000F0FF0847
:102DF000B8F1030FEED3324605F1F001BDF808003B
:102E0000FFF7BEFA27484323274A3146CDE9007031
:102E1000264800680DF0E4FE8146304606F05AFA76
:102E200002E0FFE74FF0FF39A079FF2802DAA0792E
:102E3000401CA071A079062803DAA17901208840FE
:102E400000E03C2000EB4001C1EBC0104FF6FF71E9
:102E500001EAC00A0AF2F3104FF4FA7190FBF1F0A4
:102E60002081484652E70000646863705F73656CB8
:102E70006563743A206E6574696620213D204E5565
:102E80004C4C0000646863705F73656C6563743AF2
:102E9000206468637020213D204E554C4C0000009A
:102EA00078010010382701003C2701007C01001048
:102EB00042798A4203D041710022827102817047B7
:102EC00070B5044600BF3CB900BF29A0FEF726FB41
:102ED00000BF6FF00F0070BD00BF00BF94F82D0061
:102EE00000F0010038B900BF25A0FEF717FB00BFB6
:102EF0006FF00F00EFE700BF256AA08CB0F5107FE0
:102F000002DA4FF0FF30E6E74DB9342004F05EFB03
:102F1000054615B94FF0FF30DDE7256203E028795B
:102F200008B1FEF77BFF34212846FDF79FF9FFF734
:102F300007F910B14FF0FF30CDE70120287194F868
:102F40002D00C0F3800028B902212846FFF7B0FF0A
:102F50000020C0E72046FEF7EBFF06462EB12046D4
:102F6000FFF7ECFD4FF0FF30B5E73046B3E7000068
:102F70006E6574696620213D204E554C4C00000062
:102F80006E65746966206973206E6F742075702C8D
:102F9000206F6C64207374796C6520706F72743F5D
:102FA00000000000014679B1086A68B10A6A5079E8
:102FB0000A2805D05079052802D05079042801D17B
:102FC000012070470020FCE70020FAE770B50546B5
:102FD0002C6A6079012805D060790A2802D06079CE
:102FE000052813D12846FFF70DFEA189628A881AA9
:102FF00000EBD0710122B2EB610F07DCA189628A7C
:10300000881A00EBD071C1F34F01E18170BD70B53A
:1030100005462C6A6079012808D060790A2805D015
:103020006079052802D06079042813D12846FFF77B
:10303000EDFBA18A628A881A00EBD0710122B2EB03
:10304000610F07DCA18A628A881A00EBD071C1F394
:103050004F01218270BD70B505462C6A60790C283D
:1030600002D06079062803D12846FEF761FF2BE0E5
:10307000607901280DD1A079052803DC2846FFF7E7
:1030800039FE21E02846FFF759FD2846FFF718FFD3
:103090001AE0607908280AD1A079012803DC2846C3
:1030A000FEF794FD10E02846FEF7ECFC0CE060799A
:1030B000032809D1A079022803DA2846FFF71EFC6D
:1030C00002E02846FEF734FF70BD00002DE9F04114
:1030D00004460D4600BF05F0030020B100BF09A063
:1030E000FEF71CFA00BF00BF2E4607F0E8FB0746BC
:1030F000A06800683060A0680660384607F006FCEB
:10310000BDE8F0816D656D705F667265653A206D32
:10311000656D2070726F7065726C7920616C696783
:103120006E65640070B5054607F0C9FB0646A868E1
:1031300004688CB12068A968086000BF04F003002F
:1031400020B100BF07A0FEF7E9F900BF00BF30467D
:1031500007F0DCFB204670BD304607F0D7FB0020AF
:10316000F9E700006D656D705F6D616C6C6F633ABF
:10317000206D656D702070726F7065726C79206162
:103180006C69676E656400002DE9F05F07460E46C6
:103190003C4600BF24B900BF43A0FEF7BFF900BF03
:1031A00000BF07F08CFB8346002060602672207F02
:1031B00040F001002077657800206070584607F0E5
:1031C000A5FB606A20B1002204212046636A98476B
:1031D000606A20B1002211462046636A9847606AFF
:1031E00020B1002202212046636A9847304603F04E
:1031F000D5FB824604F1100007F0F9FB20B15146DF
:1032000004F1100007F0E4FB04F1140007F0EFFBF9
:1032100020B1514604F1140007F0DAFB012D03D070
:10322000042D01D0032D34D1207FC0F3800900BFCD
:1032300000BF207F00F0FB00207700BF00BFB9F186
:10324000000F25D100BF206A20B900BF1AA0FEF7E9
:1032500065F900BF00BF042D03D10020216A087169
:1032600001E0206A0671206A006800F10C0800BFC6
:10327000404607F055FC20B900BF16A0FEF74EF9F6
:1032800000BF00BF00202062404607F02BFC00BFBB
:1032900008E000BF206A20B100BF15A0FEF73EF98C
:1032A00000BF00BFBDE8F09F636F6E6E20213D2020
:1032B0004E554C4C00000000636F6E6E2D3E6375E2
:1032C0007272656E745F6D736720213D204E554CA0
:1032D0004C000000696E61766C6964206F705F63FA
:1032E0006F6D706C657465645F73656D00000000E0
:1032F000636F6E6E2D3E63757272656E745F6D7373
:1033000067203D3D204E554C4C00000001460029F1
:1033100002DC4842112801DB0520704702484A427E
:1033200050F82200F9E70000A825010070B5054615
:10333000002411E004EB4400094901EBC000067DC4
:103340004EB104EB440001EBC0008068A84202D1FA
:10335000204600F043F9641C0A2CEBDB70BD000032
:1033600064C700102DE9FF5F0646894617464FF0F7
:103370000A0AD346D04600240A2003900020029077
:103380000190009000BF6FE004EB44006C4901EB3A
:10339000C000057DB8F10A0F02D10DB9A04661E069
:1033A000002D5FD000BF012D06D0022D04DA00BF32
:1033B00064A0FEF7B3F800BF00BFAEB104EB440158
:1033C0005F4A02EBC1013068496888420CD13FB1C5
:1033D00004EB4400114601EBC0008068B84203D101
:1033E000204604B0BDE8F09F012D28D104EB440035
:1033F000534951F8300080B104EB440001EBC000A8
:10340000418A029881422DDB039404EB44004C492D
:1034100001EBC000408A029024E004EB44004849DC
:1034200001EBC000418A019881421BDBA24604EBFC
:103430004400434901EBC000408A019012E0022D94
:1034400010DB04EB44003E4901EBC000418A0098C8
:10345000814207DBA34604EB4400394901EBC0007D
:10346000408A0090601C04B20A2C8DDB09F0020037
:1034700028B9B8F10A0F05D109F0010010B94FF0D1
:10348000FF30AEE7B8F10A0F01DA444629E0BBF19C
:103490000A0F0DDA5C4600BF04EB4400284951F8DE
:1034A000300020B100BF37A0FEF738F800BF0CE0B5
:1034B000BAF10A0F01DA544607E003980A2801DA44
:1034C000039C02E04FF0FF308BE700BF0A2C04DBC7
:1034D00000BF32A0FEF722F800BF00BF204600F078
:1034E0007DF800BF0A2C04DB00BF2CA0FEF716F805
:1034F00000BF00BF00BF04EB4400114901EBC00056
:10350000007D20B100BF2AA0FEF708F800BF00BF71
:1035100036B104EB44010A4A02EBC101306848604D
:10352000002004EB4401064A02EBC101488204EB8F
:103530004400114601EBC0008760204651E70000BF
:1035400064C700107374617465203D3D2045544884
:103550004152505F53544154455F50454E44494E8B
:1035600047207C7C207374617465203E3D20455467
:10357000484152505F53544154455F535441424C6B
:10358000450000006172705F7461626C655B695D2B
:103590002E71203D3D204E554C4C000069203C20B2
:1035A0004152505F5441424C455F53495A450000D7
:1035B0006172705F7461626C655B695D2E737461CA
:1035C0007465203D3D204554484152505F5354415D
:1035D00054455F454D5054590000000010B5044655
:1035E00004EB44000C4951F8300060B104EB440195
:1035F000094A52F8310005F06DFE002004EB440149
:10360000054A42F83100002004EB4401024A02EB73
:10361000C101087510BD000064C70010F0B587B087
:1036200007460D4600BF35B900BF2EA0FDF776FF57
:1036300000BF07B0F0BD00BF7C682088B0F5807F78
:1036400008D12079062805D16079042802D1608844
:10365000082803D0384605F03DFEEAE7D4F80E000E
:103660000690A0690590686808B9002607E00598EB
:103670006968884201D1012000E0002006460EB1B1
:10368000012000E00220034604F1080206A92846B2
:1036900000F0AEFBE088B0F5807F03D0B0F5007F8E
:1036A00019D113E086B1022206AB04F10800291DEE
:1036B000CDE90232CDE9001005F1260302462231A0
:1036C000284600F07DFA00E000BF05E006A9284684
:1036D000FEF7B6F900E000BF00BF384605F0FAFD7E
:1036E00000BFA6E76E6574696620213D204E554CEB
:1036F0004C0000002DE9FE4304460F461546A9463E
:1037000000BF24B900BF57A0FDF708FF00BF00BFEE
:1037100000BF27B900BF57A0FDF700FF00BF00BFE3
:1037200000BF25B900BF56A0FDF7F8FE00BF00BFDF
:103730002146286801F04AF810B1DFF8548186E08C
:10374000287800F0F000E02816D101208DF8040060
:1037500000208DF805005E208DF80600687800F0E6
:103760007F008DF80700A8788DF80800E8788DF8BC
:1037700009000DF1040869E02868A1680840D4E94F
:103780000112114088420ED0288880B24FF6A961FC
:10379000884208D0E06810B104F10C0903E06FF032
:1037A0000300BDE8FE833B48007800EB40003A4947
:1037B00001EBC000007D02281BDB3648007800EBDF
:1037C000400001EBC0008068A04212D13149097865
:1037D00001EB4101304A02EBC101D9F80000496810
:1037E000884206D12B4802783946204600F056F828
:1037F000D7E7002622E006EB4600274901EBC00090
:10380000007D022818DB06EB460001EBC000806853
:10381000A04211D106EB46011F4A02EBC101D9F8C3
:1038200000004968884207D11A4806703246394676
:10383000204600F033F8B4E7701CC6B20A2EDADB7B
:103840003A464946204600F0A9F8AAE700BF4FF4DF
:103850000060434604F1260239460090204600F0FD
:10386000A3FB9EE76E6574696620213D204E554C92
:103870004C0000007120213D204E554C4C000000B2
:1038800069706164647220213D204E554C4C0000EB
:10389000402701008801001064C70010F8B50546F4
:1038A0000E46144600BF04EB44002F4901EBC00054
:1038B000007D022804DA00BF2CA0FDF72FFE00BF18
:1038C00000BF04EB4400284901EBC000007D022842
:1038D00039D104EB440001EBC000408AB0F58E7F83
:1038E00011DD04EB44000A4602EBC000011D28462E
:1038F00000F0EEF938BB032004EB44011A4A02EB56
:10390000C10108751FE004EB4400174901EBC0003A
:10391000408AB0F5877F16DB04EB44000B4603EBCF
:10392000C00000F10C0204EB440003EBC000011DD9
:10393000284600F0D9F930B9032004EB44010A4AC3
:1039400002EBC10108754FF40060009004EB4400E5
:10395000054901EBC00000F10C0305F126023146D8
:10396000284600F021FBF8BD64C700106172705F4B
:103970007461626C655B6172705F6964785D2E73FF
:1039800074617465203E3D204554484152505F5358
:10399000544154455F535441424C45002DE9FE4F7C
:1039A00081460F46164609F1260A4FF0FF30029075
:1039B000002001904946386800F008FF38B938788F
:1039C00000F0F000E02802D00FB1386818B96FF0AD
:1039D0000F00BDE8FE8F4A4601213846FFF7C2FCC2
:1039E0008046B8F1000F02DA4FFA88F0F1E700BF25
:1039F000B8F17F0F04D300BF57A0FDF78FFD00BFC4
:103A000000BF08F0FF0404EB4400574901EBC0007D
:103A1000007D70B90120019004EB4401524A02EB91
:103A2000C101087504EB4400114601EBC000C0F869
:103A3000089000BF04EB44004B4901EBC000007D3F
:103A400001280BD004EB440001EBC000007D0228EC
:103A500004DA00BF45A0FDF761FD00BF00BF01987B
:103A600000B93EB93946484600F032F902900EB925
:103A70000298AEE700BF26B900BF46A0FDF74EFD95
:103A800000BF00BF04EB4400374901EBC000007DDC
:103A9000022811DB424804704FF40060009004EBF0
:103AA000440001EBC00000F10C0352463146484689
:103AB00000F07AFA02904CE004EB44002A4901EB52
:103AC000C000007D012844D14FF0000B354614E0C2
:103AD00000BF68892989884206D1286820B100BFC3
:103AE00030A0FDF71BFD00BF00BF287B00F04000A9
:103AF00010B14FF0010B02E02D68002DE8D100BF9E
:103B0000BBF1000F07D032464FF420710E2005F0B4
:103B10007FFA054603E03546284605F031FDA5B19C
:103B200004EB4400104951F8300030B104EB44017B
:103B30000D4A52F8310005F0CDFB04EB44000A4970
:103B400041F830500020029002E04FF0FF30029028
:103B500000BF02983DE7000074797065206F7665BC
:103B600072666C6F7700000064C700106172705F4E
:103B70007461626C655B695D2E7374617465203D70
:103B80003D2050454E44494E47206F7220535441CA
:103B9000424C45007120213D204E554C4C00000008
:103BA000880100106E6F207061636B657420717501
:103BB0006575657320616C6C6F776564210000002A
:103BC0002DE9FC5F06460F4690469946DDE90CABB1
:103BD0000020019000BF26B900BF2BA0FDF79EFC7E
:103BE00000BF00BF4FF420721C210E2005F024F806
:103BF00005461DB94FF0FF30BDE8FC9F00BF688946
:103C00001C2804DA00BF24A0FDF788FC00BF00BF19
:103C10006C680F9801F09DFFE08000BF96F82C00C3
:103C2000062804D000BF2948FDF778FC00BF00BF7C
:103C3000D9F80000A060B9F80400A081DBF800000A
:103C4000C4F81200BBF80400E082DAF80000C4F8FF
:103C50000E000E980068A0614FF48070208008204C
:103C60006080062020710420607140F60600434603
:103C70003A4629460090304600F096F9284605F06D
:103C800029FB00250198B7E76E6574696620213D20
:103C9000204E554C4C000000636865636B207468CF
:103CA0006174206669727374207062756620636146
:103CB0006E20686F6C642073747275637420657411
:103CC000686172705F68647200000000B0290100D2
:103CD00070B504460D46034A2946204600F004F814
:103CE00070BD0000402701007FB504460D46164612
:103CF0000121074A201D04F126038DE825000391C8
:103D0000324619462046FFF75BFF04B070BD000045
:103D10004627010070B5002464E004EB44003349F9
:103D200001EBC000057D002D5BD004EB440001EBEE
:103D3000C000408A401C04EB44012C4A02EBC10144
:103D4000488204EB4400114601EBC000408AB0F504
:103D5000967F0DDA04EB440001EBC000007D0128E2
:103D60000AD104EB440001EBC000408A052803DBC4
:103D70002046FFF733FC34E004EB44001B4901EB21
:103D8000C000007D032807D1042004EB4401174A3A
:103D900002EBC101087524E004EB4400134901EB78
:103DA000C000007D042807D1022004EB44010F4A23
:103DB00002EBC101087514E004EB44000B4901EB70
:103DC000C000007D01280CD104EB44020B4603EB3C
:103DD000C202111D04EB440203EBC2029068FFF71C
:103DE00077FF641C0A2C98DB70BD000064C70010CC
:103DF0002DE9F84305460E461746984600BF95F84C
:103E00002C00062804D000BF2CA0FDF787FB00BFC4
:103E100000BF5EB1306848B12946306800F0D6FC7A
:103E200020B9307800F0F000E02803D16FF00F00E7
:103E3000BDE8F8832A4641463046FFF793FA044628
:103E4000002C01DA60B2F3E7022004EB4401244ABB
:103E500002EBC101087504EB4400114601EBC00000
:103E6000856004EB440001EBC0003968C160B9888B
:103E70000182002004EB440102EBC101488204EB03
:103E80004400114651F83000B0B104EB440051F841
:103E90003090002004EB440142F831004FF4006000
:103EA0003B4605F1260249460090284600F07CF882
:103EB000484605F00FFA00BF0020B9E76E65746947
:103EC000662D3E6877616464725F6C656E203D3D6F
:103ED000204554485F4857414444525F4C454E008A
:103EE00064C700102DE9F04104460E464FF00E085D
:103EF00060890E2800DC4FE0E07B18B996F83000AE
:103F0000401CE0736568AF89287800F00100B0B10B
:103F10002878012809D1687888B9A8785E280ED158
:103F2000607B40F01000607309E006221D492846BE
:103F3000FCF7A7F918B9607B40F008006073082F00
:103F400003D0B7F5C16F22D110E096F82D0000F034
:103F5000080000B920E04146204605F035FB00B1DD
:103F60001AE03146204600F083FD11E096F82D005E
:103F700000F0080000B90FE04146204605F024FBA0
:103F800000B109E031462046FFF748FB00E003E0BE
:103F900000BF0020BDE8F081204605F09BF900201D
:103FA000F8E70000402701002DE9F04705460E46DE
:103FB00017469846DDF82090484601F0CAFD824633
:103FC0000E21304604F0EAFD00B11EE07468A4F84A
:103FD0000CA0D8F800002060B8F80400A080386871
:103FE000C4F80600B888608100BF95F82C00062848
:103FF00004D000BF06A0FDF791FA00BF00BF314614
:104000002846AA699047BDE8F0876FF00100FAE7FB
:104010006E657469662D3E6877616464725F6C6575
:104020006E206D757374206265203620666F722075
:1040300065746865726E65745F6F757470757421F0
:104040000000000070B5044600BF24B900BF10A0F6
:10405000FDF764FA00BF00BF082003F0B7FA054679
:1040600015B94FF0FF3070BDE561732084F82E0064
:1040700074212F2001550A4860610A48A06104F1AB
:1040800026002860204601F091FB0020EBE70000AD
:104090006E6574696620213D204E554C4C00000031
:1040A000F536000009590000054600262C4615A0EB
:1040B000FDF734FA25E04FF0FF31194800680DF0A4
:1040C0009DFE01281DD10CF021FF00BF204601F00C
:1040D000CDFB06460CF05CFF9EB10CF017FF2146AD
:1040E00030462269904720B1304605F0F3F80026AB
:1040F00005E000210A4800680DF080FEE6E70CF0BC
:1041000047FFD8E765746865726E657469665F69B4
:104110006E7075742072756E6E696E670A000000AD
:10412000B80100102DE9F84F05460E46DDB1AF6924
:10413000002F12DA06F0C3FB8146A869002808DACE
:1041400016B9A869401EA861484606F0DFFBBDE825
:10415000F88FAF69484606F0D9FB384600F0B2F850
:1041600004460CB9F3E7F2E74FF0010806F0A7FBAD
:104170008146052E24D2DFE806F0030E151C200030
:104180002089401C00B22081B4F90800012801DD1B
:104190004FF000081CE02089401E00B220814FF043
:1041A000000815E0608908B14FF000080120608127
:1041B0000EE00020608180460AE00120A08107E037
:1041C00000BF00BF17A0FDF7A9F900BF00BF00BFE7
:1041D00000BFA07B00B3B8F1000F1DD0B4F90800F8
:1041E000002801DD012000E000208246608908B13E
:1041F000012000E000208346A08908B1012000E0F2
:1042000000200090484606F081FB5A465146384649
:10421000009B06F03FF902E0484606F077FB00BF3E
:1042200095E70000756E6B6E6F776E206576656E34
:104230007400000070B504460D46E1B20220FDF79F
:10424000A7F800BF0220FCF705FF0028FAD120469E
:1042500070BD2DE9FC4105460C4606F030FB0746D3
:104260006B4601AA2146284600F01FF8064638464C
:1042700006F04CFB26B16A462046019900F002F890
:10428000BDE8FC8170B506460D461446206838B17D
:104290001EB1206805F01EF802E0206803F01EFC45
:1042A00015B1284603F056FD70BD10B50446606890
:1042B00018600020606020681060002020600120ED
:1042C00010BD000070B5054628460BF0F3FE04460D
:1042D00034B900BF09200349086000BF002070BD49
:1042E0002046FCE79401001070B505460C462246B6
:1042F0000321284600F022F970BD00002DE9FF5F80
:1043000005468A4671488068039003980078000744
:10431000870E142F00DAD0E06889042800D2CCE0A0
:104320006868047814B1082C71D100E0C0E0DFF8AF
:104330009C9109F114096548007D00F0F000E02827
:1043400000D1BEE0614A1168506900F03FFA00B147
:10435000B7E02889082800D2AFE0284600F05FF9CE
:1043600020B1284604F0B6FFBDE8FF9F07F10E011B
:10437000284604F013FC002840D0288938441FFA4E
:1043800080FB2889584500DD9BE04FF42072594698
:104390000E2004F051FC8046B8F1000F00D190E0EF
:1043A000B8F80A1007F10800814203D2404604F031
:1043B00091FF86E03A46D8F804000399FBF72FFFF7
:1043C0003946404605F000F950B100BF00BF40A09B
:1043D000FDF7A4F800BF00BF404604F07BFF70E08B
:1043E0002946404604F03CFE18B1404604F072FFF6
:1043F00067E0284604F06EFF45460FE007F10E0126
:10440000284605F0E1F848B100BF00BF00E03DE0FC
:104410003DA0FDF783F800BF00BF52E06E6839464B
:10442000284604F0BBFB80BBD5F80480D9F8000017
:10443000C8F80C0025480069C8F81000002030704A
:1044400070884FF6F771884203DD708809307080FC
:1044500002E0708808307080FF2088F80800002093
:10446000A8F80A003946404600F0CFF8A8F80A003C
:1044700001200021FF230A46CDE9010A00914946A7
:10448000284600F0FDFB834600BF11E0032C0ED050
:104490000B2C0CD00C2C0AD0042C08D0052C06D0E8
:1044A0000D2C04D00E2C02D0112C00D000BF00BF68
:1044B00000BF284604F00EFF56E7284604F00AFF26
:1044C00052E7284604F006FF00BF4DE7A45F001046
:1044D00069636D705F696E7075743A206D6F76698F
:1044E0006E6720722D3E7061796C6F616420746F0D
:1044F0002069636D7020686561646572206661691A
:104500006C65640A0000000069636D705F696E701D
:1045100075743A20726573746F72696E67206F727A
:104520006967696E616C20702D3E7061796C6F6196
:1045300064206661696C65640A0000002DE9FF472C
:104540000746884691464FF420722421222004F029
:1045500073FB05460DB9BDE8FF8700BF68892428B5
:1045600004D200BF19A0FCF7D9FF00BF00BFD7F8E5
:1045700004A06C6884F8008084F801900020A0807A
:10458000E08079686A6802F108001C22FBF747FEA8
:10459000DAF80C00039003A800F09CFD064686B1F3
:1045A000002060806989204600F02FF8608001209B
:1045B0000021FF2303AACDE901060091284600F05F
:1045C0005FFB284604F086FE00BFC4E763686563AE
:1045D0006B207468617420666972737420706275F0
:1045E000662063616E20686F6C642069636D702063
:1045F0006D6573736167650070B505460C462246AC
:104600000B212846FFF79AFF70BD30B504460D46D2
:104610002946204602F042FEC04380B230BDF0B5CC
:10462000064600270024354619E06989686802F0CB
:1046300035FE0444A0B200EB1444688900EBD0714D
:104640004910A0EB410149B10FB9012000E0002061
:104650000746E0B2C4F3072141EA00242D68002D8B
:10466000E3D127B1E0B2C4F3072141EA0024E043DB
:1046700080B2F0BD2DE9F0470746884691461E46B8
:10468000DDF820A03568ACB24FF6FF7000EA1540A7
:104690000444DAF80050A8B204444FF6FF7000EA70
:1046A00015400444A0B200EB1444A0B200EB144443
:1046B00023464A464146384600F002F8BDE8F087F6
:1046C0002DE9F04706460F4690461C464FF000097C
:1046D00035461BE06989686802F0E0FD0444A0B239
:1046E00000EB1444688900EBD0714910A0EB410144
:1046F00059B1B9F1000F01D1012000E0002081463D
:10470000E0B2C4F3072141EA00242D68002DE1D175
:10471000B9F1000F04D0E0B2C4F3072141EA00244C
:10472000384601F016FA0444404601F012FA0444F7
:10473000A0B200EB1444A0B200EB1444E04380B2FA
:10474000BDE8F08770B50020FBF72EFE04464FF45D
:104750007A70B4FBF0F1B1F1807F00D31DE021F05D
:104760007F40401E4FF0E022506150171F2200286A
:1047700007DAD3061E0E134B00F00F052D1F5E55F2
:1047800003E0D3061D0E104B1D5400BF00204FF058
:10479000E02290610720106100BF0122D1060220B3
:1047A000FCF7B9F9012291060220FCF7B4F90122C5
:1047B000D1050220FCF7AFF9012291050220FCF798
:1047C000AAF970BD18ED00E000E400E018B502465B
:1047D0000092D04300B10AB9012018BD91F82D0014
:1047E00000F0020008B90020F7E74868904201D1C4
:1047F0000020F2E700988B681840D1E9013423408B
:10480000984208D1886822EA00008C68E343984205
:1048100001D10120E1E70020DFE700002DE9F74F9B
:104820008CB0044688464FF00009B8F82410A1F176
:104830001400C11700EB5171C1F3CF0A1420059089
:1048400060680990099E307800F00F001421B1EBE8
:10485000800F04D06FF005000FB0BDE8F08F00BFEF
:104860006089142807DA00BF6DA0FCF757FE00BF6F
:104870006FF00500F0E700BFF08801F06AF90490DE
:104880000498C0F30C000790049800F400500390C3
:10489000208914381FFA80FBB8E04FF6FF7000EA59
:1048A000CA00584501DD584603E04FF6FF7000EAA4
:1048B000CA0008904FF4207214210E2004F0BCF9B5
:1048C000054605B9A8E000BF6889142804DA00BFCE
:1048D0005AA0FCF723FE00BF00BF142268680999A4
:1048E000FBF79DFC6E6808980A9050E06189059876
:1048F000081A80B2029000BF61890598814204DAEB
:1049000000BF56A0FCF70AFE00BF00BF02990A983C
:10491000884201DA0A9800E002988146B9F1000F56
:1049200003D100200590246831E000F02FFC0746F9
:104930001FB9284604F0CEFC6EE061680598084473
:104940003B4641224946CDE90009002004F0B4FA73
:104950000B900B9830B9384600F01EFC284604F046
:10496000B9FC59E0204604F00BFE7C613F483861F9
:1049700028460B9904F0CAFA0A98A0EB090080B205
:104980000A900A9810B100200590246800BF0A9888
:104990000028ABD10598484480B20590B8F82400AF
:1049A0001438584501DB012000E0002006900798EC
:1049B000C0F30C000490069808B1039818B104984D
:1049C00040F400500490049801F0C3F8F080089976
:1049D000143188B201F0BDF870800020708114217C
:1049E0003046FFF712FE7081D8F814302946404651
:1049F0000E9A9847284604F06DFC0898ABEB00002F
:104A00001FFA80FB0798504480B20790BBF1000F5B
:104A10007FF443AF00201FE74FF0FF301CE700009A
:104A20006970345F6672616728293A207062756622
:104A300020746F6F2073686F7274000074686973FC
:104A4000206E656564732061207062756620696EF2
:104A5000206F6E652070696563652100702D3E6C66
:104A6000656E203E3D20706F66660000F9560000BE
:104A70002DE9F04707460E464FF0010A7C68207882
:104A80000421B1EB201F05D0384604F023FC0020A0
:104A9000BDE8F087207800074FEA9068608801F051
:104AA00058F881463989494503DD4946384604F0BE
:104AB000EFFC7889404505DB3889484502DBB8F1D1
:104AC000140F04DA384604F005FC0020E0E7414604
:104AD0002046FFF79AFD20B1384604F0FBFB00208A
:104AE000D6E7206957494861E06808610846007DBB
:104AF00000F0F000E0280AD196F82D0000F0010047
:104B000018B1706808B135461CE000251AE030463F
:104B100000F09CF808B1354614E000254948007DB6
:104B20007F280FD04848056809E0B54200D105E06C
:104B3000284600F08BF800B103E000BF2D68002D7F
:104B4000F3D100BF65B9607A112809D104EB0800E0
:104B50004188B1F5884F02D135464FF0000A00BFB9
:104B6000BAF1000F13D03748006980B135490869A0
:104B70003146FFF72BFE28B93248007C00F0F000E8
:104B8000E02804D1384604F0A5FB002080E725B9D1
:104B9000384604F09FFB00207AE7E0884FF63F712B
:104BA000084038B1384600F04FF907460FB90020E9
:104BB0006EE77C68234805604660846020780007C3
:104BC000800E204988814146384604F0FDFC607A19
:104BD00001280DD0062806D011280ED131463846BE
:104BE0000BF0B6FC22E03146384606F07FFF1DE0B0
:104BF00031463846FFF782FB18E0124948692946DA
:104C0000FFF7E4FD70B90F48007D00F0F000E028E8
:104C100008D00FFA88F1384604F010FC022138461B
:104C2000FFF762FB384604F055FB00BF00BF0020D1
:104C3000044908604860886088810861486100BF55
:104C400026E70000A45F00100801001010B504461C
:104C500094F82D0000F0010070B1606860B1074861
:104C600040696168884205D0044948692146FFF7D8
:104C7000ADFD08B1012010BD0020FCE7A45F0010CD
:104C80002DE9FE4F07460C4615469846DDE90C9A7D
:104C90000E9EA34625B10CB1206808B906F1040B9D
:104CA00043462A4659463846CDE9009A029600F016
:104CB00003F8BDE8FE8F00002DE9FF4F81B00646E6
:104CC00089469846DDE90FA7002500BFB07B012883
:104CD00004D000BF4BA0FCF721FC00BF00BF03982D
:104CE000002872D04FF0140B1421304603F056FF09
:104CF00020B16FF0010005B0BDE8F08F746800BF0F
:104D00007089142804D200BF41A0FCF707FC00BF43
:104D100000BF84F8088084F809A04AEA0820000649
:104D2000000C4AEA082140EA112005440398006873
:104D30002061208A80B20544206905EB1045584661
:104D40004FEAEB710BEB9171C1F3870141F0400128
:104D500021700E98607021780E9840EA01200006BC
:104D6000010C22780E9840EA022041EA1020054406
:104D7000308900F0EEFE6080608805440020E0800D
:104D80002F48008800F0E5FEA080A08805442C484C
:104D90000088401C2A490880B9F1000F03D1294836
:104DA0000068E06002E0D9F80000E060A08980B20D
:104DB0000544E06805EB1045A8B200EB154505EB8E
:104DC0001545ED4365810BE0FFE77089142802DA91
:104DD0006FF001008FE7746820690090CDF80CD067
:104DE000B88C48B13089B98C884205DD39463046E7
:104DF000039AFFF713FD7EE77B6931463846039A35
:104E0000984778E7702D3E726566203D3D20310061
:104E1000636865636B20746861742066697273747B
:104E200020706275662063616E20686F6C64207309
:104E300074727563742069705F68647200000000AA
:104E40008A010010382701002DE9F14F84B0049841
:104E50004568287800F00F001421B1EB800F00D0D6
:104E60000AE1E88800F075FEC0F30C004FF6FF7110
:104E700001EAC00A688800F06CFE0746287800073F
:104E8000810E02910299B94200DDF5E00298381ACC
:104E900087B2049804F0B3F806467A480188881966
:104EA0000A280ADD3146284600F0C8FB20B17548C3
:104EB000008830440A2800DDDEE07348046811E011
:104EC0006069E968884209D1A0692969884205D1E9
:104ED000A089A988884201D1012000E0002000B10A
:104EE00002E02468002CEBD100BF34B931462846DB
:104EF00000F0CCFA044694B9BEE0E88800F029FE40
:104F0000C0F30C0058B9E08900F023FEC0F30C0098
:104F100028B11422294604F10800FBF780F9E8883B
:104F2000012121EA50100190019850B10AEB0701CC
:104F300088B2504503DB4FF6EB71884200DD81E01B
:104F400000BF2046019A049900F03CF983460BF11A
:104F5000010000B976E04B48008830444949088098
:104F6000019840B10AEB070188B2A083A17F41F00C
:104F70000101A17700BFBBF1010F61D1A08B1430FB
:104F800080B2009060684068D0F800906068456822
:104F9000142204F108012846FBF741F9009800F0BB
:104FA000D8FD68800020E880688114212846FFF73A
:104FB0002CFB6881606804900DE0D9F80400039030
:104FC0001421484604F000FB4946049803F09EFF74
:104FD0000398D0F80090B9F1000FEED12A4800688C
:104FE000844202D14FF000080EE02748D0F800803C
:104FF00006E0D8F80000A04200D104E0D8F8008014
:10500000B8F1000FF5D100BF4146204600F014FA78
:10501000049803F0F4FF064600BF1A480088B04227
:1050200004DA00BF19A0FCF779FA00BF00BF1548E9
:105030000088801B13490880049805B0BDE8F08FF4
:105040000020FAE700BF24B900BF17A0FCF766FAFA
:1050500000BF00BF606870B900BF0B4800688442A1
:1050600004D000BF13A0FCF759FA00BF00BF002115
:10507000204600F0E1F900BF049804F02BF900206D
:10508000DBE70000900100108C01001069705F7276
:10509000656173735F70627566636F756E74203ED1
:1050A0003D20636C656E000069707220213D204ECA
:1050B000554C4C006E6F74206669727374616C7429
:1050C000686F756768206A75737420656E717565A1
:1050D0007565640010B502462148016821E091F829
:1050E0002D0000F00100D8B191F82D00C0F3800030
:1050F000B0B14868A0B110688B681840D1E901349C
:105100002340984201D1084610BD91F82D0000F0CF
:10511000020028B91068CB68984201D10846F3E72D
:1051200009680029DBD10F480068A0B10D4800686C
:1051300090F82D0000F0010068B10A48006890F86E
:105140002D00C0F3800030B106480068406810B1FF
:1051500010787F2801D10020D6E702480068D3E705
:10516000080100100C0100102DE9F84304460D461B
:1051700016461F46DDF820803B463246294620462B
:10518000CDF80080FFF776FABDE8F88310B505206A
:1051900002F07CFC10BD000010B5044600BF24B92D
:1051A00000BF05A0FCF7BAF900BF00BF21460520EB
:1051B00002F01EFC10BD00007020213D204E554C19
:1051C0004C0000002DE9F74F84B0064688460025C4
:1051D00001200190D8F8040002900299488800F05C
:1051E000B8FC8346029800780007800E039003986D
:1051F000584503DD681E07B0BDE8F08F0398ABEBA0
:1052000000001FFA80FB0299C88800F0A2FCC0F3DE
:105210000C004FF6FF7101EAC00A00BF00BFD8F8CA
:10522000044000202060A4F804A00AEB0B00E080FA
:10523000E088504502DA4FF0FF30DCE7D6F8049002
:105240003EE0D9F80470A088B988884220DAC4F812
:1052500000909DB1A088E988884203DBE088B98886
:10526000884202DD4FF0FF30C5E7C5F80080E888CE
:10527000A18888420BD00020019008E0E088B9881E
:10528000884202DD4FF0FF30B5E7C6F804801AE02F
:10529000A088B988884202D14FF0FF30ABE7A088E0
:1052A000F988884202DA4FF0FF30A4E72DB1E88890
:1052B000B988884201D000200190D7F800903D467F
:1052C000B9F1000FBDD100BFB9F1000F1FD19DB1E1
:1052D00000BFE888A188884204DD00BF33A0FCF746
:1052E0001DF900BF00BFC5F80080E888A18888428A
:1052F0000DD0002001900AE000BF706820B100BF0F
:1053000032A0FCF70BF900BF00BFC6F80480069876
:1053100020B9B07F00F00100002844D00198002897
:105320003BD0706818B170684068808810B1002068
:10533000019032E02546D4F800900BE0D9F8044003
:10534000E888A188884202D00020019005E0254627
:10535000D4F80090B9F1000FF0D100BF0198E0B18E
:1053600000BF706820B900BF26A0FCF7D7F800BFC7
:1053700000BF00BF70684068A04204D100BF21A0F8
:10538000FCF7CCF800BF00BF00BF206820B100BF11
:1053900020A0FCF7C3F800BF00BF019808B10120AE
:1053A00029E7002027E7002025E700006368656300
:1053B0006B20667261676D656E747320646F6E2713
:1053C00074206F7665726C61700000006E6F2070E3
:1053D000726576696F757320667261676D656E744C
:1053E0002C2074686973206D757374206265207455
:1053F000686520666972737420667261676D656E98
:105400007421000073616E69747920636865636B51
:105410000000000076616C69646174655F646174AA
:10542000616772616D3A6E6578745F70627566214E
:105430003D4E554C4C00000070B504460D460B48DF
:105440000068A04203D109492068086009E000BF54
:1054500025B900BF06A0FCF761F800BF00BF2068B7
:1054600028602146042002F0C3FA70BD8C010010B0
:1054700073616E69747920636865636B206C696E13
:105480006B6564206C6973740000000070B505469C
:105490000E46042002F0FAFA044664B93146284662
:1054A00000F0CCF8B04203DB042002F0EFFA04462F
:1054B0000CB9002070BD20212046FAF7D7FE0F203E
:1054C000E0770648006820600448046014222946FA
:1054D00004F10800FAF7A3FE2046EBE78C01001068
:1054E0002DE9F04704468846002500BFA04504D1B9
:1054F00000BF38A0FCF712F800BF00BFB8F1000FE2
:105500000AD000BFD8F80000A04204D000BF34A0E9
:10551000FCF704F800BF00BF6068D0F80490B9F849
:10552000040008BB6768D9F800006060142204F129
:1055300008017868FAF773FE01213846FFF75CF836
:10554000384603F05CFD064600BFA819B0F5803F61
:1055500004DB00BF27A0FBF7E1FF00BF00BFA819D5
:1055600085B2384603F0B6FE676819E0D7F80490B4
:10557000BA46D9F80070504603F041FD064600BF18
:10558000A819B0F5803F04DB00BF1AA0FBF7C6FFE7
:1055900000BF00BFA81985B2504603F09BFE00BFB4
:1055A000002FE3D141462046FFF746FF00BF1948D0
:1055B0000088A84204DA00BF17A0FBF7AFFF00BFC6
:1055C00000BF14480088401B124908802846BDE8E7
:1055D000F08700007072657620213D2069707200AE
:1055E000707265762D3E6E657874203D3D20697041
:1055F0007200000070627566735F66726565642094
:105600002B20636C656E203C3D20307866666666B4
:10561000000000009001001069705F726561737393
:105620005F70627566636F756E74203E3D207062B8
:105630007566735F66726565640000002DE9F84F5A
:1056400005468946002700BF0026B246002000908C
:1056500083461B48046821E06069E968884207D1F5
:10566000A0692969884203D1A089A988884201D00C
:10567000012000E0002068B10BF1010B1EB92646A5
:10568000CDF800A006E0E07FF17F884202DC2646EC
:10569000CDF800A0206800B1A2462468002CDBD120
:1056A0002EB130460099FFF71BFF804647444F4517
:1056B00002DABBF1010FC7DC3846BDE8F88F000005
:1056C0008C01001070B500250A4804680FE0E07FE7
:1056D000002805DDE07F401EE0772546246806E0CF
:1056E0002646246829463046FFF7FAFE00BF002C04
:1056F000EDD170BD8C01001070B505462C4600BF81
:1057000024B900BF0BA0FBF709FF00BF00BF00BF1B
:10571000AC4204D000BF0AA0FBF700FF00BF00BFEF
:10572000606910B1606903F0D5FD2046FFF734FDD4
:1057300070BD000070637220213D204E554C4C001E
:10574000706372203D3D207000000000002413E0D3
:1057500022464FF000610220FBF7CEF922464FF4BB
:1057600080010220FBF7C8F90CB9012000E00020FD
:10577000044664200BF042FDEAE7002414E02246D0
:105780004FF080610220FBF7B7F922464FF4000189
:105790000220FBF7B1F90CB9012000E0002004461B
:1057A0004FF4FA700BF02AFDE9E7000038B5044623
:1057B000062084F82C00D82084F826007A2127209F
:1057C0000155A521282001550021292001552A2015
:1057D000015501212B20015540F2DC50A0840E2000
:1057E00084F82D00FBF7B6F9002128200BF0E6FF26
:1057F0000E49086000210E4805F042F910B90DA0CD
:10580000FBF78CFE32210F4805F0CFF810B90EA03F
:10581000FBF784FE0420030222461049009010A0EA
:1058200005F086F9104802F01BF938BDB8010010E8
:10583000BC0100107379735F73656D5F6E657720CF
:105840006F6B0A00C00100107379735F6D626F782F
:105850005F6E6577206F6B0A00000000A9400000B2
:10586000455448494E0000004C2701002DE9F04105
:10587000074621482149097830F8110010B9002065
:10588000BDE8F0811E481D49097850F821001D49E6
:1058900008601948194A127830F812104FF4C17292
:1058A000002003F0C9F9054615B300262C460BE08D
:1058B0006289144B1B6803EB46016068FAF7AFFC82
:1058C0006089304486B22468002CF1D100210A4856
:1058D0000A4A127820F8121008480078401C07493C
:1058E000087008460078022804DB0020087001E0F8
:1058F0000020C5E72846C3E7300000103D00001037
:10590000340000102C0000102DE9F04107460E462F
:1059100000251248006830B90021104805F0B0F8A1
:105920000E4805F0DFF800210C4804F0CDFF3446A6
:1059300008E062890A4B58196168FAF770FC6089BF
:1059400005442468002CF4D129460548FBF748FAA1
:10595000024805F0C7F80020BDE8F081C80100103A
:10596000301A00102DE9F04107464FF00008384684
:10597000FEF7A8FC04461CB94FF0FF30BDE8F081EB
:10598000206850B12068007800F0F000102801D1A4
:10599000012000E00020804608E000BF606820B1E0
:1059A00000BF10A0FBF7BAFD00BF00BF206802F0E7
:1059B000F7FB05466DB100BF2846FDF7A7FC06467C
:1059C00000BF0EB10D48066000BF00BF4FF0FF30B2
:1059D000D4E741462046FEF73CFC00BF00BF002054
:1059E000CCE70000736F636B2D3E6C617374646170
:1059F0007461203D3D204E554C4C00009401001038
:105A00002DE9F84F81460C4617464846FEF75AFCEA
:105A100006461EB94FF0FF30BDE8F88F00BF607832
:105A200020B9306802F0A6F9054631E000BF102F1A
:105A300007D1607810B16078022802D104F0030029
:105A4000B0B100BF1FA0FBF769FD00BF00BF6FF042
:105A50000F00FDF75BFC804600BFB8F1000F02D0DD
:105A60002048C0F8008000BF00BF4FF0FF30D3E7F0
:105A700000BF00BF60680090608800F06AF882464E
:105A800000BF52466946306802F032F9054600BF51
:105A900085B100BF2846FDF739FC804600BFB8F14C
:105AA000000F02D00F48C0F8008000BF00BF4FF0C9
:105AB000FF30B1E700BF002000BF00BF00BF00BF44
:105AC000AAE700006C7769705F636F6E6E65637440
:105AD0003A20696E76616C696420616464726573F2
